{
  "_format": "hh-sol-artifact-1",
  "contractName": "CommunityChainlink",
  "sourceName": "contracts/CommunityChainlink.sol",
  "abi": [
    {
      "inputs": [
        {
          "internalType": "address",
          "name": "_treasury",
          "type": "address"
        },
        {
          "internalType": "contract LinkTokenInterface",
          "name": "_link",
          "type": "address"
        },
        {
          "internalType": "address",
          "name": "_registrar",
          "type": "address"
        },
        {
          "internalType": "contract AutomationRegistryInterface",
          "name": "_registry",
          "type": "address"
        }
      ],
      "stateMutability": "nonpayable",
      "type": "constructor"
    },
    {
      "inputs": [],
      "name": "AlreadyAMember",
      "type": "error"
    },
    {
      "inputs": [],
      "name": "AlreadyANutrionist",
      "type": "error"
    },
    {
      "inputs": [],
      "name": "InsufficientPayment",
      "type": "error"
    },
    {
      "inputs": [],
      "name": "InvalidApplicant",
      "type": "error"
    },
    {
      "inputs": [],
      "name": "InvalidDeadline",
      "type": "error"
    },
    {
      "inputs": [],
      "name": "InvalidSubStatus",
      "type": "error"
    },
    {
      "inputs": [
        {
          "internalType": "string",
          "name": "message",
          "type": "string"
        }
      ],
      "name": "UnauthorizedApplication",
      "type": "error"
    },
    {
      "inputs": [
        {
          "internalType": "address",
          "name": "caller",
          "type": "address"
        }
      ],
      "name": "UnauthorizedMember",
      "type": "error"
    },
    {
      "inputs": [
        {
          "internalType": "address",
          "name": "caller",
          "type": "address"
        }
      ],
      "name": "UnauthorizedNutritionist",
      "type": "error"
    },
    {
      "anonymous": false,
      "inputs": [
        {
          "indexed": false,
          "internalType": "address",
          "name": "applicant",
          "type": "address"
        }
      ],
      "name": "ApplicationApproved",
      "type": "event"
    },
    {
      "anonymous": false,
      "inputs": [
        {
          "indexed": false,
          "internalType": "address",
          "name": "applicant",
          "type": "address"
        },
        {
          "indexed": false,
          "internalType": "string",
          "name": "dataURI",
          "type": "string"
        }
      ],
      "name": "NewApplication",
      "type": "event"
    },
    {
      "anonymous": false,
      "inputs": [
        {
          "indexed": false,
          "internalType": "address",
          "name": "user",
          "type": "address"
        },
        {
          "indexed": false,
          "internalType": "string",
          "name": "dataURI",
          "type": "string"
        }
      ],
      "name": "NewSignUp",
      "type": "event"
    },
    {
      "anonymous": false,
      "inputs": [
        {
          "indexed": true,
          "internalType": "address",
          "name": "previousOwner",
          "type": "address"
        },
        {
          "indexed": true,
          "internalType": "address",
          "name": "newOwner",
          "type": "address"
        }
      ],
      "name": "OwnershipTransferred",
      "type": "event"
    },
    {
      "inputs": [
        {
          "internalType": "uint256",
          "name": "",
          "type": "uint256"
        }
      ],
      "name": "allArticles",
      "outputs": [
        {
          "internalType": "string",
          "name": "title",
          "type": "string"
        },
        {
          "internalType": "address",
          "name": "author",
          "type": "address"
        },
        {
          "internalType": "string",
          "name": "authorName",
          "type": "string"
        },
        {
          "internalType": "string",
          "name": "content",
          "type": "string"
        }
      ],
      "stateMutability": "view",
      "type": "function"
    },
    {
      "inputs": [
        {
          "internalType": "uint256",
          "name": "",
          "type": "uint256"
        }
      ],
      "name": "allFitnessPlans",
      "outputs": [
        {
          "internalType": "string",
          "name": "name",
          "type": "string"
        },
        {
          "internalType": "string",
          "name": "fitnessDescription",
          "type": "string"
        },
        {
          "internalType": "address",
          "name": "creator",
          "type": "address"
        }
      ],
      "stateMutability": "view",
      "type": "function"
    },
    {
      "inputs": [
        {
          "internalType": "uint256",
          "name": "",
          "type": "uint256"
        }
      ],
      "name": "allMealPlans",
      "outputs": [
        {
          "internalType": "string",
          "name": "mealName",
          "type": "string"
        },
        {
          "internalType": "string",
          "name": "mealDescription",
          "type": "string"
        },
        {
          "internalType": "address",
          "name": "creator",
          "type": "address"
        }
      ],
      "stateMutability": "view",
      "type": "function"
    },
    {
      "inputs": [
        {
          "internalType": "uint256",
          "name": "",
          "type": "uint256"
        }
      ],
      "name": "allNutritionists",
      "outputs": [
        {
          "internalType": "string",
          "name": "nutritionistPersonalData",
          "type": "string"
        },
        {
          "internalType": "address",
          "name": "nutritionistAddress",
          "type": "address"
        },
        {
          "components": [
            {
              "internalType": "address",
              "name": "consultant",
              "type": "address"
            },
            {
              "internalType": "string",
              "name": "consultationDescription",
              "type": "string"
            }
          ],
          "internalType": "struct CommunityChainlink.ConsultationServices",
          "name": "consultationServices",
          "type": "tuple"
        }
      ],
      "stateMutability": "view",
      "type": "function"
    },
    {
      "inputs": [
        {
          "internalType": "uint256",
          "name": "",
          "type": "uint256"
        }
      ],
      "name": "allNutritionistsAddresses",
      "outputs": [
        {
          "internalType": "address",
          "name": "",
          "type": "address"
        }
      ],
      "stateMutability": "view",
      "type": "function"
    },
    {
      "inputs": [
        {
          "internalType": "uint256",
          "name": "",
          "type": "uint256"
        }
      ],
      "name": "allNutritionistsApplicants",
      "outputs": [
        {
          "internalType": "address",
          "name": "",
          "type": "address"
        }
      ],
      "stateMutability": "view",
      "type": "function"
    },
    {
      "inputs": [
        {
          "internalType": "uint256",
          "name": "",
          "type": "uint256"
        }
      ],
      "name": "allNutritionistsApplications",
      "outputs": [
        {
          "internalType": "string",
          "name": "dataURI",
          "type": "string"
        },
        {
          "internalType": "address",
          "name": "nutritionistAddress",
          "type": "address"
        },
        {
          "internalType": "enum CommunityChainlink.NutritionistApplicationStatus",
          "name": "applicationStatus",
          "type": "uint8"
        }
      ],
      "stateMutability": "view",
      "type": "function"
    },
    {
      "inputs": [
        {
          "internalType": "uint256",
          "name": "",
          "type": "uint256"
        }
      ],
      "name": "allUserAddresses",
      "outputs": [
        {
          "internalType": "address",
          "name": "",
          "type": "address"
        }
      ],
      "stateMutability": "view",
      "type": "function"
    },
    {
      "inputs": [
        {
          "internalType": "uint256",
          "name": "",
          "type": "uint256"
        }
      ],
      "name": "allUsers",
      "outputs": [
        {
          "internalType": "address",
          "name": "userAddress",
          "type": "address"
        },
        {
          "internalType": "string",
          "name": "userPersonalData",
          "type": "string"
        },
        {
          "internalType": "enum CommunityChainlink.UserSubscriptionStatus",
          "name": "subStatus",
          "type": "uint8"
        },
        {
          "internalType": "uint256",
          "name": "subDeadline",
          "type": "uint256"
        }
      ],
      "stateMutability": "view",
      "type": "function"
    },
    {
      "inputs": [
        {
          "internalType": "address",
          "name": "",
          "type": "address"
        }
      ],
      "name": "applicantToIndex",
      "outputs": [
        {
          "internalType": "uint256",
          "name": "",
          "type": "uint256"
        }
      ],
      "stateMutability": "view",
      "type": "function"
    },
    {
      "inputs": [
        {
          "internalType": "string",
          "name": "dataURI",
          "type": "string"
        }
      ],
      "name": "applyForNutritionistRole",
      "outputs": [],
      "stateMutability": "payable",
      "type": "function"
    },
    {
      "inputs": [
        {
          "internalType": "address",
          "name": "applicant",
          "type": "address"
        }
      ],
      "name": "approveNutritionistRole",
      "outputs": [],
      "stateMutability": "nonpayable",
      "type": "function"
    },
    {
      "inputs": [],
      "name": "cancelNutritionistApplication",
      "outputs": [],
      "stateMutability": "nonpayable",
      "type": "function"
    },
    {
      "inputs": [
        {
          "internalType": "bytes",
          "name": "",
          "type": "bytes"
        }
      ],
      "name": "checkUpkeep",
      "outputs": [
        {
          "internalType": "bool",
          "name": "upkeepNeeded",
          "type": "bool"
        },
        {
          "internalType": "bytes",
          "name": "performData",
          "type": "bytes"
        }
      ],
      "stateMutability": "view",
      "type": "function"
    },
    {
      "inputs": [
        {
          "internalType": "string",
          "name": "_consultationDesc",
          "type": "string"
        }
      ],
      "name": "createConsultation",
      "outputs": [],
      "stateMutability": "nonpayable",
      "type": "function"
    },
    {
      "inputs": [
        {
          "internalType": "string",
          "name": "_fitnessName",
          "type": "string"
        },
        {
          "internalType": "string",
          "name": "fitnessDesc",
          "type": "string"
        }
      ],
      "name": "createFitnessPlan",
      "outputs": [],
      "stateMutability": "nonpayable",
      "type": "function"
    },
    {
      "inputs": [
        {
          "internalType": "string",
          "name": "_mealName",
          "type": "string"
        },
        {
          "internalType": "string",
          "name": "mealPlanDesc",
          "type": "string"
        }
      ],
      "name": "createMealPlan",
      "outputs": [],
      "stateMutability": "nonpayable",
      "type": "function"
    },
    {
      "inputs": [],
      "name": "getAllMembers",
      "outputs": [
        {
          "components": [
            {
              "internalType": "address",
              "name": "userAddress",
              "type": "address"
            },
            {
              "internalType": "string",
              "name": "userPersonalData",
              "type": "string"
            },
            {
              "internalType": "enum CommunityChainlink.UserSubscriptionStatus",
              "name": "subStatus",
              "type": "uint8"
            },
            {
              "internalType": "uint256",
              "name": "subDeadline",
              "type": "uint256"
            }
          ],
          "internalType": "struct CommunityChainlink.User[]",
          "name": "_users",
          "type": "tuple[]"
        }
      ],
      "stateMutability": "view",
      "type": "function"
    },
    {
      "inputs": [],
      "name": "getAllNutritionists",
      "outputs": [
        {
          "components": [
            {
              "internalType": "string",
              "name": "nutritionistPersonalData",
              "type": "string"
            },
            {
              "components": [
                {
                  "internalType": "string",
                  "name": "mealName",
                  "type": "string"
                },
                {
                  "internalType": "string",
                  "name": "mealDescription",
                  "type": "string"
                },
                {
                  "internalType": "address",
                  "name": "creator",
                  "type": "address"
                }
              ],
              "internalType": "struct CommunityChainlink.MealPlans[]",
              "name": "nutritionistMealplans",
              "type": "tuple[]"
            },
            {
              "internalType": "address",
              "name": "nutritionistAddress",
              "type": "address"
            },
            {
              "components": [
                {
                  "internalType": "string",
                  "name": "name",
                  "type": "string"
                },
                {
                  "internalType": "string",
                  "name": "fitnessDescription",
                  "type": "string"
                },
                {
                  "internalType": "address",
                  "name": "creator",
                  "type": "address"
                }
              ],
              "internalType": "struct CommunityChainlink.FitnessPlans[]",
              "name": "fitnessPlans",
              "type": "tuple[]"
            },
            {
              "components": [
                {
                  "internalType": "address",
                  "name": "consultant",
                  "type": "address"
                },
                {
                  "internalType": "string",
                  "name": "consultationDescription",
                  "type": "string"
                }
              ],
              "internalType": "struct CommunityChainlink.ConsultationServices",
              "name": "consultationServices",
              "type": "tuple"
            },
            {
              "components": [
                {
                  "internalType": "string",
                  "name": "title",
                  "type": "string"
                },
                {
                  "internalType": "address",
                  "name": "author",
                  "type": "address"
                },
                {
                  "internalType": "string",
                  "name": "authorName",
                  "type": "string"
                },
                {
                  "internalType": "string",
                  "name": "content",
                  "type": "string"
                }
              ],
              "internalType": "struct CommunityChainlink.Articles[]",
              "name": "nutritionistArticles",
              "type": "tuple[]"
            }
          ],
          "internalType": "struct CommunityChainlink.Nutritionist[]",
          "name": "_nutritionists",
          "type": "tuple[]"
        }
      ],
      "stateMutability": "view",
      "type": "function"
    },
    {
      "inputs": [],
      "name": "i_link",
      "outputs": [
        {
          "internalType": "contract LinkTokenInterface",
          "name": "",
          "type": "address"
        }
      ],
      "stateMutability": "view",
      "type": "function"
    },
    {
      "inputs": [],
      "name": "i_registry",
      "outputs": [
        {
          "internalType": "contract AutomationRegistryInterface",
          "name": "",
          "type": "address"
        }
      ],
      "stateMutability": "view",
      "type": "function"
    },
    {
      "inputs": [
        {
          "internalType": "string",
          "name": "_userData",
          "type": "string"
        },
        {
          "internalType": "string",
          "name": "nftUri",
          "type": "string"
        }
      ],
      "name": "joinCommunity",
      "outputs": [],
      "stateMutability": "payable",
      "type": "function"
    },
    {
      "inputs": [],
      "name": "nutritionistApplicationFee",
      "outputs": [
        {
          "internalType": "uint256",
          "name": "",
          "type": "uint256"
        }
      ],
      "stateMutability": "view",
      "type": "function"
    },
    {
      "inputs": [
        {
          "internalType": "address",
          "name": "",
          "type": "address"
        }
      ],
      "name": "nutritionistApplicationStatus",
      "outputs": [
        {
          "internalType": "enum CommunityChainlink.NutritionistApplicationStatus",
          "name": "",
          "type": "uint8"
        }
      ],
      "stateMutability": "view",
      "type": "function"
    },
    {
      "inputs": [
        {
          "internalType": "address",
          "name": "",
          "type": "address"
        }
      ],
      "name": "nutritionistApplications",
      "outputs": [
        {
          "internalType": "string",
          "name": "dataURI",
          "type": "string"
        },
        {
          "internalType": "address",
          "name": "nutritionistAddress",
          "type": "address"
        },
        {
          "internalType": "enum CommunityChainlink.NutritionistApplicationStatus",
          "name": "applicationStatus",
          "type": "uint8"
        }
      ],
      "stateMutability": "view",
      "type": "function"
    },
    {
      "inputs": [],
      "name": "nutritionistNFT",
      "outputs": [
        {
          "internalType": "contract INutritionistNFT",
          "name": "",
          "type": "address"
        }
      ],
      "stateMutability": "view",
      "type": "function"
    },
    {
      "inputs": [
        {
          "internalType": "address",
          "name": "",
          "type": "address"
        }
      ],
      "name": "nutritionists",
      "outputs": [
        {
          "internalType": "string",
          "name": "nutritionistPersonalData",
          "type": "string"
        },
        {
          "internalType": "address",
          "name": "nutritionistAddress",
          "type": "address"
        },
        {
          "components": [
            {
              "internalType": "address",
              "name": "consultant",
              "type": "address"
            },
            {
              "internalType": "string",
              "name": "consultationDescription",
              "type": "string"
            }
          ],
          "internalType": "struct CommunityChainlink.ConsultationServices",
          "name": "consultationServices",
          "type": "tuple"
        }
      ],
      "stateMutability": "view",
      "type": "function"
    },
    {
      "inputs": [],
      "name": "owner",
      "outputs": [
        {
          "internalType": "address",
          "name": "",
          "type": "address"
        }
      ],
      "stateMutability": "view",
      "type": "function"
    },
    {
      "inputs": [
        {
          "internalType": "bytes",
          "name": "performData",
          "type": "bytes"
        }
      ],
      "name": "performUpkeep",
      "outputs": [],
      "stateMutability": "nonpayable",
      "type": "function"
    },
    {
      "inputs": [
        {
          "internalType": "string",
          "name": "_title",
          "type": "string"
        },
        {
          "internalType": "string",
          "name": "_authorName",
          "type": "string"
        },
        {
          "internalType": "string",
          "name": "_content",
          "type": "string"
        }
      ],
      "name": "publishArticle",
      "outputs": [],
      "stateMutability": "nonpayable",
      "type": "function"
    },
    {
      "inputs": [
        {
          "internalType": "string",
          "name": "name",
          "type": "string"
        },
        {
          "internalType": "bytes",
          "name": "encryptedEmail",
          "type": "bytes"
        },
        {
          "internalType": "address",
          "name": "upkeepContract",
          "type": "address"
        },
        {
          "internalType": "uint32",
          "name": "gasLimit",
          "type": "uint32"
        },
        {
          "internalType": "address",
          "name": "adminAddress",
          "type": "address"
        },
        {
          "internalType": "bytes",
          "name": "checkData",
          "type": "bytes"
        },
        {
          "internalType": "uint96",
          "name": "amount",
          "type": "uint96"
        },
        {
          "internalType": "uint8",
          "name": "source",
          "type": "uint8"
        }
      ],
      "name": "registerAndPredictID",
      "outputs": [],
      "stateMutability": "nonpayable",
      "type": "function"
    },
    {
      "inputs": [],
      "name": "registrar",
      "outputs": [
        {
          "internalType": "address",
          "name": "",
          "type": "address"
        }
      ],
      "stateMutability": "view",
      "type": "function"
    },
    {
      "inputs": [
        {
          "internalType": "address",
          "name": "applicant",
          "type": "address"
        }
      ],
      "name": "rejectNutritionistRole",
      "outputs": [],
      "stateMutability": "nonpayable",
      "type": "function"
    },
    {
      "inputs": [],
      "name": "renewSubscription",
      "outputs": [],
      "stateMutability": "nonpayable",
      "type": "function"
    },
    {
      "inputs": [],
      "name": "renounceOwnership",
      "outputs": [],
      "stateMutability": "nonpayable",
      "type": "function"
    },
    {
      "inputs": [
        {
          "internalType": "address",
          "name": "_member",
          "type": "address"
        }
      ],
      "name": "revokeUser",
      "outputs": [],
      "stateMutability": "nonpayable",
      "type": "function"
    },
    {
      "inputs": [
        {
          "internalType": "address",
          "name": "_userNFT",
          "type": "address"
        },
        {
          "internalType": "address",
          "name": "_nutritionistNFT",
          "type": "address"
        }
      ],
      "name": "setNFTs",
      "outputs": [],
      "stateMutability": "nonpayable",
      "type": "function"
    },
    {
      "inputs": [],
      "name": "subscriptionDuration",
      "outputs": [
        {
          "internalType": "uint256",
          "name": "",
          "type": "uint256"
        }
      ],
      "stateMutability": "view",
      "type": "function"
    },
    {
      "inputs": [
        {
          "internalType": "address",
          "name": "newOwner",
          "type": "address"
        }
      ],
      "name": "transferOwnership",
      "outputs": [],
      "stateMutability": "nonpayable",
      "type": "function"
    },
    {
      "inputs": [],
      "name": "treasury",
      "outputs": [
        {
          "internalType": "address",
          "name": "",
          "type": "address"
        }
      ],
      "stateMutability": "view",
      "type": "function"
    },
    {
      "inputs": [],
      "name": "userApplicationFee",
      "outputs": [
        {
          "internalType": "uint256",
          "name": "",
          "type": "uint256"
        }
      ],
      "stateMutability": "view",
      "type": "function"
    },
    {
      "inputs": [],
      "name": "userNFT",
      "outputs": [
        {
          "internalType": "contract IUserNFT",
          "name": "",
          "type": "address"
        }
      ],
      "stateMutability": "view",
      "type": "function"
    },
    {
      "inputs": [
        {
          "internalType": "address",
          "name": "",
          "type": "address"
        }
      ],
      "name": "userToIndex",
      "outputs": [
        {
          "internalType": "uint256",
          "name": "",
          "type": "uint256"
        }
      ],
      "stateMutability": "view",
      "type": "function"
    }
  ],
  "bytecode": "0x6101006040526000805463ffffffff60a01b1916631b2ceb3360a11b17905562278d006007553480156200003257600080fd5b5060405162004c8e38038062004c8e8339810160408190526200005591620000ec565b620000603362000083565b6001600160a01b0393841660e052918316608052821660a0521660c05262000154565b600080546001600160a01b038381166001600160a01b0319831681178455604051919092169283917f8be0079c531659141344cd1fd0a4f28419497f9722a3daafe3b4186f6b6457e09190a35050565b6001600160a01b0381168114620000e957600080fd5b50565b600080600080608085870312156200010357600080fd5b84516200011081620000d3565b60208601519094506200012381620000d3565b60408601519093506200013681620000d3565b60608601519092506200014981620000d3565b939692955090935050565b60805160a05160c05160e051614acf620001bf600039600081816104980152818161125a01526125df0152600081816103a101528181610c2a01528181610ddb0152610ea50152600081816103d50152610d260152600081816105710152610cf70152614acf6000f3fe60806040526004361061025c5760003560e01c80637f6c7f1011610144578063ca5da7af116100b6578063e52f011c1161007a578063e52f011c146107c5578063ec04cfa9146107e7578063ef097fc414610807578063f11c85a814610827578063f2fde38b14610847578063f621f9aa1461086757600080fd5b8063ca5da7af1461070d578063d0e4b8f61461073a578063d7465f201461076a578063dd4320c814610785578063dd96a186146107a557600080fd5b8063935ca0f311610108578063935ca0f31461064f5780639f191e081461066f578063a2bdedf41461068f578063a862c3e3146106bf578063b4d2fd1e146106da578063b5aacf84146106fa57600080fd5b80637f6c7f10146105935780638ce1118d146105b35780638d5091ad146105e25780638da5cb5b146106025780638fc64e5d1461062057600080fd5b80634585e33b116101dd5780636e307981116101a15780636e307981146104e857806370309b4c146104fd578063715018a6146105125780637a94a633146105275780637c0f6b351461053d5780637d253aff1461055f57600080fd5b80634585e33b146104265780635b2656eb1461044657806361647b5b1461046657806361d027b3146104865780636e04ff0d146104ba57600080fd5b80631c4e1dc7116102245780631c4e1dc71461035c5780631ff74bc01461037c5780632a6636061461038f5780632b20e397146103c3578063447cc936146103f757600080fd5b806308505d571461026157806308dad446146102a757806312f8a6ab146102c9578063167d05ff1461030157806318a9fb8a1461033c575b600080fd5b34801561026d57600080fd5b5061029161027c366004613958565b600f6020526000908152604090205460ff1681565b60405161029e91906139a6565b60405180910390f35b3480156102b357600080fd5b506102c76102c2366004613958565b610887565b005b3480156102d557600080fd5b506102e96102e43660046139ba565b610bfc565b6040516001600160a01b03909116815260200161029e565b34801561030d57600080fd5b5061032e61031c366004613958565b60056020526000908152604090205481565b60405190815260200161029e565b34801561034857600080fd5b506102c7610357366004613b69565b610c26565b34801561036857600080fd5b506102e96103773660046139ba565b610f4c565b6102c761038a366004613c53565b610f5c565b34801561039b57600080fd5b506102e97f000000000000000000000000000000000000000000000000000000000000000081565b3480156103cf57600080fd5b506102e97f000000000000000000000000000000000000000000000000000000000000000081565b34801561040357600080fd5b506104176104123660046139ba565b6112e6565b60405161029e93929190613ce4565b34801561043257600080fd5b506102c7610441366004613c53565b611439565b34801561045257600080fd5b506102c7610461366004613d22565b6114b4565b34801561047257600080fd5b506004546102e9906001600160a01b031681565b34801561049257600080fd5b506102e97f000000000000000000000000000000000000000000000000000000000000000081565b3480156104c657600080fd5b506104da6104d5366004613c53565b611641565b60405161029e929190613da9565b3480156104f457600080fd5b506102c7611864565b34801561050957600080fd5b506102c7611a8d565b34801561051e57600080fd5b506102c7611bd7565b34801561053357600080fd5b5061032e60075481565b34801561054957600080fd5b50610552611beb565b60405161029e9190613ddc565b34801561056b57600080fd5b506102e97f000000000000000000000000000000000000000000000000000000000000000081565b34801561059f57600080fd5b506102c76105ae366004613e7c565b611d2f565b3480156105bf57600080fd5b506105d36105ce3660046139ba565b611d65565b60405161029e93929190613eb5565b3480156105ee57600080fd5b506102e96105fd3660046139ba565b611e37565b34801561060e57600080fd5b506000546001600160a01b03166102e9565b34801561062c57600080fd5b5061064061063b366004613958565b611e47565b60405161029e93929190613f0d565b34801561065b57600080fd5b5061064061066a3660046139ba565b611fa9565b34801561067b57600080fd5b506102c761068a366004613f4b565b611fdc565b34801561069b57600080fd5b506106af6106aa3660046139ba565b6120a6565b60405161029e9493929190613fae565b3480156106cb57600080fd5b5061032e662386f26fc1000081565b3480156106e657600080fd5b506102c76106f5366004613958565b612178565b6102c7610708366004613f4b565b612235565b34801561071957600080fd5b5061032e610728366004613958565b60066020526000908152604090205481565b34801561074657600080fd5b5061075a6107553660046139ba565b61266a565b60405161029e9493929190613ff0565b34801561077657600080fd5b5061032e6611c37937e0800081565b34801561079157600080fd5b506102c76107a0366004614043565b612851565b3480156107b157600080fd5b506104176107c03660046139ba565b6128d5565b3480156107d157600080fd5b506107da6128e5565b60405161029e91906141b8565b3480156107f357600080fd5b506105d3610802366004613958565b612ff5565b34801561081357600080fd5b506102c7610822366004613958565b613010565b34801561083357600080fd5b506102c7610842366004613f4b565b6133d1565b34801561085357600080fd5b506102c7610862366004613958565b613456565b34801561087357600080fd5b506003546102e9906001600160a01b031681565b61088f6134cf565b6001600160a01b0381166000908152600f6020526040902054819060ff1660018160048111156108c1576108c161397c565b146108df5760405163b824136960e01b815260040160405180910390fd5b6001600160a01b0383166000908152600c602052604090205460ff16156109195760405163773aeddd60e11b815260040160405180910390fd5b6001600160a01b0383166000908152600f602090815260408083208054600260ff199182168117909255600c8452828520805490911660011790556010909252808320815160608101909252805492939282908290610977906142f1565b80601f01602080910402602001604051908101604052809291908181526020018280546109a3906142f1565b80156109f05780601f106109c5576101008083540402835291602001916109f0565b820191906000526020600020905b8154815290600101906020018083116109d357829003601f168201915b505050918352505060018201546001600160a01b0381166020830152604090910190600160a01b900460ff166004811115610a2d57610a2d61397c565b6004811115610a3e57610a3e61397c565b9052506001600160a01b038681166000908152600e60209081526040909120908301516002820180546001600160a01b03191691909316179091558151919250908190610a8b9082614376565b506015805460018101825560009190915281906007027f55f448fdea98c4d29eb340757ef0a66cd03dbb9538908a6a81d96026b71ec4750180610ace8382614435565b5060018281018054610ae39284019190613647565b5060028281015490820180546001600160a01b0319166001600160a01b0390921691909117905560038083018054610b1e92840191906136e0565b506004828101805491830180546001600160a01b0319166001600160a01b0390931692909217825590600580840190610b5990860182614435565b50505060068281018054610b709284019190613775565b5050600980546001810182556000919091527f6e1540171b6c0c960b71a7020d9f60077f6af931a8bbf590da0223dacf75c7af0180546001600160a01b0319166001600160a01b0389169081179091556040519081527f6ca6150407f26e90367ff690c8b617cad626020aa12080384e3b31479c0442fb915060200160405180910390a1505050505050565b60088181548110610c0c57600080fd5b6000918252602090912001546001600160a01b0316905081565b60007f00000000000000000000000000000000000000000000000000000000000000006001600160a01b0316631865c57d6040518163ffffffff1660e01b8152600401600060405180830381865afa158015610c86573d6000803e3d6000fd5b505050506040513d6000823e601f3d908101601f19168201604052610cae91908101906145ec565b5050805160405191925063ffffffff1690600090610ce4908e908e908e908e908e908e908e908e908e908e903090602001614784565b60405160208183030381529060405290507f00000000000000000000000000000000000000000000000000000000000000006001600160a01b0316634000aea07f000000000000000000000000000000000000000000000000000000000000000087600060149054906101000a900460e01b85604051602001610d6892919061481a565b6040516020818303038152906040526040518463ffffffff1660e01b8152600401610d959392919061484b565b6020604051808303816000875af1158015610db4573d6000803e3d6000fd5b505050506040513d601f19601f82011682018060405250810190610dd89190614887565b507f00000000000000000000000000000000000000000000000000000000000000006001600160a01b0316631865c57d6040518163ffffffff1660e01b8152600401600060405180830381865afa158015610e37573d6000803e3d6000fd5b505050506040513d6000823e601f3d908101601f19168201604052610e5f91908101906145ec565b5050805190935063ffffffff16610e778360016148bf565b8103610ef7576000610e8a6001436148d2565b60408051914060208301526bffffffffffffffffffffffff197f000000000000000000000000000000000000000000000000000000000000000060601b16908201526001600160e01b031960e086901b16605482015260580160408051601f198184030190525250610f3c565b60405162461bcd60e51b8152602060048201526015602482015274185d5d1bcb585c1c1c9bdd9948191a5cd8589b1959605a1b60448201526064015b60405180910390fd5b5050505050505050505050505050565b600a8181548110610c0c57600080fd5b336000908152600c602052604090205460ff1615610f8d5760405163773aeddd60e11b815260040160405180910390fd5b6000610f9860015490565b336000908152600f602052604090205490915060ff166001816004811115610fc257610fc261397c565b1480610fdf57506002816004811115610fdd57610fdd61397c565b145b156110385760405163157a0b0f60e31b815260206004820152602260248201527f436f6d6d756e6974793a20616c7265616479206170706c6965642f70656e64696044820152616e6760f01b6064820152608401610f33565b6611c37937e080003410156110605760405163cd1c886760e01b815260040160405180910390fd5b506040805160806020601f860181900402820181019092526060810184815260019260009291829188908890819085018382808284376000920191909152505050908252503360208201526040018360048111156110c0576110c061397c565b9052336000908152600560209081526040808320879055600f90915290208054919250839160ff191660018360048111156110fd576110fd61397c565b0217905550336000908152601060205260409020815182919081906111229082614376565b5060208201516001820180546001600160a01b039092166001600160a01b03198316811782556040850151926001600160a81b03191617600160a01b8360048111156111705761117061397c565b021790555050600a805460018181019092557fc65a7bb8d6351c1cf70c95a316cc6a92839c986682d98bc35f958f4883f9d2a80180546001600160a01b03191633179055601180549182018155600052825183925060029091027f31ecc21a745e3968a04e9570e4425bc18fa8019c68028196b546d1669c200c68019081906111f99082614376565b5060208201516001820180546001600160a01b039092166001600160a01b03198316811782556040850151926001600160a81b03191617600160a01b8360048111156112475761124761397c565b0217905550506040516001600160a01b037f00000000000000000000000000000000000000000000000000000000000000001691503480156108fc02916000818181858888f193505050501580156112a3573d6000803e3d6000fd5b507f61d9c1c60d18166430e232b0032dc6dca6b6f8ecb9fae9972cd57989dd88020f3386866040516112d7939291906148e5565b60405180910390a15050505050565b601281815481106112f657600080fd5b9060005260206000209060030201600091509050806000018054611319906142f1565b80601f0160208091040260200160405190810160405280929190818152602001828054611345906142f1565b80156113925780601f1061136757610100808354040283529160200191611392565b820191906000526020600020905b81548152906001019060200180831161137557829003601f168201915b5050505050908060010180546113a7906142f1565b80601f01602080910402602001604051908101604052809291908181526020018280546113d3906142f1565b80156114205780601f106113f557610100808354040283529160200191611420565b820191906000526020600020905b81548152906001019060200180831161140357829003601f168201915b505050600290930154919250506001600160a01b031683565b60006114478284018461490a565b905060005b81518161ffff1610156114ae576000828261ffff168151811061147157611471614a25565b6020026020010151905060008160000151905081606001514211156114995761149981613010565b505080806114a690614a3b565b91505061144c565b50505050565b6114bc6134cf565b336000908152600c602052604090205460ff166114ee5760405163349b3f2f60e21b8152336004820152602401610f33565b336000818152600e6020908152604080832081516080810183528881528084019590955290840186905260608401859052600681018054600181018255908452919092208351929392839260040290910190819061154c9082614376565b5060208201516001820180546001600160a01b0319166001600160a01b03909216919091179055604082015160028201906115879082614376565b506060820151600382019061159c9082614376565b505060168054600181018255600091909152825183925060049091027fd833147d7dc355ba459fc788f669e58cfaf9dc25ddcd0702e87d69c7b5124289019081906115e79082614376565b5060208201516001820180546001600160a01b0319166001600160a01b03909216919091179055604082015160028201906116229082614376565b50606082015160038201906116379082614376565b5050505050505050565b600060606000806014805490506001600160401b03811115611665576116656139d3565b6040519080825280602002602001820160405280156116c157816020015b6116ae6040805160808101825260008082526060602083015290918201908152602001600081525090565b8152602001906001900390816116835790505b50905060005b60145461ffff8216101561183557600060148261ffff16815481106116ee576116ee614a25565b6000918252602091829020604080516080810190915260049092020180546001600160a01b03168252600181018054929391929184019161172e906142f1565b80601f016020809104026020016040519081016040528092919081815260200182805461175a906142f1565b80156117a75780601f1061177c576101008083540402835291602001916117a7565b820191906000526020600020905b81548152906001019060200180831161178a57829003601f168201915b505050918352505060028281015460209092019160ff16908111156117ce576117ce61397c565b60028111156117df576117df61397c565b8152602001600382015481525050905080606001514211156118225780838361ffff168151811061181257611812614a25565b6020026020010181905250600193505b508061182d81614a3b565b9150506116c7565b508193508060405160200161184a9190613ddc565b604051602081830303815290604052925050509250929050565b336000908152600b602052604090205460ff16156118975760405163bfadfc2760e01b8152336004820152602401610f33565b336000818152600d6020526040902060030154428111156118cb57604051631da7447960e21b815260040160405180910390fd5b336000908152600d6020908152604080832081516080810190925280546001600160a01b03168252600181018054929391929184019161190a906142f1565b80601f0160208091040260200160405190810160405280929190818152602001828054611936906142f1565b80156119835780601f1061195857610100808354040283529160200191611983565b820191906000526020600020905b81548152906001019060200180831161196657829003601f168201915b505050918352505060028281015460209092019160ff16908111156119aa576119aa61397c565b60028111156119bb576119bb61397c565b81526003919091015460209091015290506002816040015160028111156119e4576119e461397c565b14611a0257604051631294a20560e01b815260040160405180910390fd5b60016040828101829052336000908152600d6020908152919020835181546001600160a01b0319166001600160a01b03909116178155908301518392820190611a4b9082614376565b5060408201518160020160006101000a81548160ff02191690836002811115611a7657611a7661397c565b021790555060608201518160030155905050505050565b336000908152600c602052604090205460ff16611abf5760405163349b3f2f60e21b8152336004820152602401610f33565b336000818152600f602052604090205460ff166001816004811115611ae657611ae661397c565b14611b045760405163b824136960e01b815260040160405180910390fd5b336000908152600c602052604090205460ff1615611b355760405163773aeddd60e11b815260040160405180910390fd5b336000818152600f602052604081205460ff1691611b5290613529565b9050600a8181548110611b6757611b67614a25565b6000918252602080832090910180546001600160a01b0319169055338252601090526040812090611b98828261381f565b50600190810180546001600160a81b0319169055336000908152600f60205260409020805460049450849260ff1990911690835b021790555050505050565b611bdf6134cf565b611be96000613597565b565b60606014805480602002602001604051908101604052809291908181526020016000905b82821015611d2657600084815260209081902060408051608081019091526004850290910180546001600160a01b031682526001810180549293919291840191611c58906142f1565b80601f0160208091040260200160405190810160405280929190818152602001828054611c84906142f1565b8015611cd15780601f10611ca657610100808354040283529160200191611cd1565b820191906000526020600020905b815481529060010190602001808311611cb457829003601f168201915b505050918352505060028281015460209092019160ff1690811115611cf857611cf861397c565b6002811115611d0957611d0961397c565b815260200160038201548152505081526020019060010190611c0f565b50505050905090565b611d376134cf565b600480546001600160a01b039384166001600160a01b03199182161790915560038054929093169116179055565b60118181548110611d7557600080fd5b9060005260206000209060020201600091509050806000018054611d98906142f1565b80601f0160208091040260200160405190810160405280929190818152602001828054611dc4906142f1565b8015611e115780601f10611de657610100808354040283529160200191611e11565b820191906000526020600020905b815481529060010190602001808311611df457829003601f168201915b505050600190930154919250506001600160a01b0381169060ff600160a01b9091041683565b60098181548110610c0c57600080fd5b600e60205260009081526040902080548190611e62906142f1565b80601f0160208091040260200160405190810160405280929190818152602001828054611e8e906142f1565b8015611edb5780601f10611eb057610100808354040283529160200191611edb565b820191906000526020600020905b815481529060010190602001808311611ebe57829003601f168201915b5050506002840154604080518082019091526004860180546001600160a01b03908116835260058801805497989190941696909550919350916020840191611f22906142f1565b80601f0160208091040260200160405190810160405280929190818152602001828054611f4e906142f1565b8015611f9b5780601f10611f7057610100808354040283529160200191611f9b565b820191906000526020600020905b815481529060010190602001808311611f7e57829003601f168201915b505050505081525050905083565b60158181548110611fb957600080fd5b9060005260206000209060070201600091509050806000018054611e62906142f1565b336000908152600c602052604090205460ff1661200e5760405163349b3f2f60e21b8152336004820152602401610f33565b336000818152600e60209081526040808320815160608101835287815280840187905291820194909452600380850180546001810182559085529290932081519193849302019081906120619082614376565b50602082015160018201906120769082614376565b5060409190910151600290910180546001600160a01b0319166001600160a01b0390921691909117905550505050565b601481815481106120b657600080fd5b6000918252602090912060049091020180546001820180546001600160a01b039092169350906120e5906142f1565b80601f0160208091040260200160405190810160405280929190818152602001828054612111906142f1565b801561215e5780601f106121335761010080835404028352916020019161215e565b820191906000526020600020905b81548152906001019060200180831161214157829003601f168201915b505050506002830154600390930154919260ff1691905084565b6121806134cf565b6001600160a01b0381166000908152600f6020526040902054819060ff1660018160048111156121b2576121b261397c565b146121d05760405163b824136960e01b815260040160405180910390fd5b6001600160a01b0383166000908152600c602052604090205460ff161561220a5760405163773aeddd60e11b815260040160405180910390fd5b6001600160a01b0383166000908152600f602052604090208054600391829160ff1916600183611bcc565b336000908152600b602052604090205460ff16156122665760405163a929afd160e01b815260040160405180910390fd5b662386f26fc1000034101561228e5760405163cd1c886760e01b815260040160405180910390fd5b600061229960025490565b336000908152600b60209081526040808320805460ff19166001908117909155600d835281842082516080810190935280546001600160a01b0316835290810180549596509394919390928401916122f0906142f1565b80601f016020809104026020016040519081016040528092919081815260200182805461231c906142f1565b80156123695780601f1061233e57610100808354040283529160200191612369565b820191906000526020600020905b81548152906001019060200180831161234c57829003601f168201915b505050918352505060028281015460209092019160ff16908111156123905761239061397c565b60028111156123a1576123a161397c565b8152600391909101546020918201523382528101859052600160408201526007549091506123cf90426148bf565b6060820152336000908152600d60209081526040909120825181546001600160a01b0319166001600160a01b039091161781559082015182919060018201906124189082614376565b5060408201518160020160006101000a81548160ff021916908360028111156124435761244361397c565b021790555060609190910151600390910155336000908152600660209081526040822084905560148054600181018255925282517fce6d7b5282bd9a3661ae061feed1dbda4e52ab073b1f9285be6e155d9c38d4ec600490930292830180546001600160a01b0319166001600160a01b039092169190911781559083015183927fce6d7b5282bd9a3661ae061feed1dbda4e52ab073b1f9285be6e155d9c38d4ed01906124f09082614376565b5060408201518160020160006101000a81548160ff0219169083600281111561251b5761251b61397c565b021790555060609190910151600390910155600880546001810182556000919091527ff3f7a9fe364faab93b216da50a3214154f22a0a2b415b23a84c8169e8b636ee30180546001600160a01b031916339081179091556004805460405163d0def52160e01b81526001600160a01b03919091169263d0def521926125a292889101614a5c565b600060405180830381600087803b1580156125bc57600080fd5b505af11580156125d0573d6000803e3d6000fd5b50506040516001600160a01b037f00000000000000000000000000000000000000000000000000000000000000001692503480156108fc029250906000818181858888f1935050505015801561262a573d6000803e3d6000fd5b507f8772c8819e99ebb9f69fe72d9a60c78de13a367140e9360b1a4f2fbe59d7204b338560405161265c929190614a5c565b60405180910390a150505050565b6016818154811061267a57600080fd5b906000526020600020906004020160009150905080600001805461269d906142f1565b80601f01602080910402602001604051908101604052809291908181526020018280546126c9906142f1565b80156127165780601f106126eb57610100808354040283529160200191612716565b820191906000526020600020905b8154815290600101906020018083116126f957829003601f168201915b505050600184015460028501805494956001600160a01b03909216949193509150612740906142f1565b80601f016020809104026020016040519081016040528092919081815260200182805461276c906142f1565b80156127b95780601f1061278e576101008083540402835291602001916127b9565b820191906000526020600020905b81548152906001019060200180831161279c57829003601f168201915b5050505050908060030180546127ce906142f1565b80601f01602080910402602001604051908101604052809291908181526020018280546127fa906142f1565b80156128475780601f1061281c57610100808354040283529160200191612847565b820191906000526020600020905b81548152906001019060200180831161282a57829003601f168201915b5050505050905084565b336000908152600c602052604090205460ff166128835760405163349b3f2f60e21b8152336004820152602401610f33565b336000818152600e602090815260409182902082518084019093528383529082018490526004810180546001600160a01b0319169093178355918190600584016128cd8682614376565b505050505050565b601381815481106112f657600080fd5b60606015805480602002602001604051908101604052809291908181526020016000905b82821015611d2657838290600052602060002090600702016040518060c001604052908160008201805461293c906142f1565b80601f0160208091040260200160405190810160405280929190818152602001828054612968906142f1565b80156129b55780601f1061298a576101008083540402835291602001916129b5565b820191906000526020600020905b81548152906001019060200180831161299857829003601f168201915b5050505050815260200160018201805480602002602001604051908101604052809291908181526020016000905b82821015612b4f5783829060005260206000209060030201604051806060016040529081600082018054612a16906142f1565b80601f0160208091040260200160405190810160405280929190818152602001828054612a42906142f1565b8015612a8f5780601f10612a6457610100808354040283529160200191612a8f565b820191906000526020600020905b815481529060010190602001808311612a7257829003601f168201915b50505050508152602001600182018054612aa8906142f1565b80601f0160208091040260200160405190810160405280929190818152602001828054612ad4906142f1565b8015612b215780601f10612af657610100808354040283529160200191612b21565b820191906000526020600020905b815481529060010190602001808311612b0457829003601f168201915b5050509183525050600291909101546001600160a01b031660209182015290825260019290920191016129e3565b5050509082525060028201546001600160a01b0316602080830191909152600383018054604080518285028101850182528281529401939260009084015b82821015612cf95783829060005260206000209060030201604051806060016040529081600082018054612bc0906142f1565b80601f0160208091040260200160405190810160405280929190818152602001828054612bec906142f1565b8015612c395780601f10612c0e57610100808354040283529160200191612c39565b820191906000526020600020905b815481529060010190602001808311612c1c57829003601f168201915b50505050508152602001600182018054612c52906142f1565b80601f0160208091040260200160405190810160405280929190818152602001828054612c7e906142f1565b8015612ccb5780601f10612ca057610100808354040283529160200191612ccb565b820191906000526020600020905b815481529060010190602001808311612cae57829003601f168201915b5050509183525050600291909101546001600160a01b03166020918201529082526001929092019101612b8d565b50505090825250604080518082019091526004830180546001600160a01b0316825260058401805460209485019484019190612d34906142f1565b80601f0160208091040260200160405190810160405280929190818152602001828054612d60906142f1565b8015612dad5780601f10612d8257610100808354040283529160200191612dad565b820191906000526020600020905b815481529060010190602001808311612d9057829003601f168201915b505050505081525050815260200160068201805480602002602001604051908101604052809291908181526020016000905b82821015612fde5783829060005260206000209060040201604051806080016040529081600082018054612e12906142f1565b80601f0160208091040260200160405190810160405280929190818152602001828054612e3e906142f1565b8015612e8b5780601f10612e6057610100808354040283529160200191612e8b565b820191906000526020600020905b815481529060010190602001808311612e6e57829003601f168201915b505050918352505060018201546001600160a01b03166020820152600282018054604090920191612ebb906142f1565b80601f0160208091040260200160405190810160405280929190818152602001828054612ee7906142f1565b8015612f345780601f10612f0957610100808354040283529160200191612f34565b820191906000526020600020905b815481529060010190602001808311612f1757829003601f168201915b50505050508152602001600382018054612f4d906142f1565b80601f0160208091040260200160405190810160405280929190818152602001828054612f79906142f1565b8015612fc65780601f10612f9b57610100808354040283529160200191612fc6565b820191906000526020600020905b815481529060010190602001808311612fa957829003601f168201915b50505050508152505081526020019060010190612ddf565b505050508152505081526020019060010190612909565b601060205260009081526040902080548190611d98906142f1565b6001600160a01b0381166000908152600d602052604090206003015481904281111561304f57604051631da7447960e21b815260040160405180910390fd5b6001600160a01b0383166000908152600b602052604090205460ff166130935760405163bfadfc2760e01b81526001600160a01b0384166004820152602401610f33565b6001600160a01b038084166000908152600d60209081526040808320815160808101909252805490941681526001840180549394919391928401916130d7906142f1565b80601f0160208091040260200160405190810160405280929190818152602001828054613103906142f1565b80156131505780601f1061312557610100808354040283529160200191613150565b820191906000526020600020905b81548152906001019060200180831161313357829003601f168201915b505050918352505060028281015460209092019160ff16908111156131775761317761397c565b60028111156131885761318861397c565b8152602001600382015481525050905080606001514211156131b35760026040820152600060608201525b6001600160a01b038481166000908152600d60209081526040909120835181546001600160a01b031916931692909217825582015182919060018201906131fa9082614376565b5060408201518160020160006101000a81548160ff021916908360028111156132255761322561397c565b0217905550606082015181600301559050506000613242856135e7565b9050816014828154811061325857613258614a25565b600091825260209182902083516004929092020180546001600160a01b0319166001600160a01b0390921691909117815590820151600182019061329c9082614376565b5060408201518160020160006101000a81548160ff021916908360028111156132c7576132c761397c565b021790555060609190910151600390910155600480548351604051639c85cd6b60e01b81526001600160a01b0391821693810193909352600092911690639c85cd6b90602401602060405180830381865afa15801561332a573d6000803e3d6000fd5b505050506040513d601f19601f8201168201806040525081019061334e9190614a80565b600480548551604051632770a7eb60e21b81529394506001600160a01b0390911692639dc29fac9261339792918691016001600160a01b03929092168252602082015260400190565b600060405180830381600087803b1580156133b157600080fd5b505af11580156133c5573d6000803e3d6000fd5b50505050505050505050565b336000908152600c602052604090205460ff166134035760405163349b3f2f60e21b8152336004820152602401610f33565b336000818152600e60209081526040808320815160608101835287815280840187905291820194909452600180850180549182018155845291909220825183926003029091019081906120619082614376565b61345e6134cf565b6001600160a01b0381166134c35760405162461bcd60e51b815260206004820152602660248201527f4f776e61626c653a206e6577206f776e657220697320746865207a65726f206160448201526564647265737360d01b6064820152608401610f33565b6134cc81613597565b50565b6000546001600160a01b03163314611be95760405162461bcd60e51b815260206004820181905260248201527f4f776e61626c653a2063616c6c6572206973206e6f7420746865206f776e65726044820152606401610f33565b6001600160a01b0381166000908152600f6020526040812054829060ff16600181600481111561355b5761355b61397c565b146135795760405163b824136960e01b815260040160405180910390fd5b5050506001600160a01b031660009081526005602052604090205490565b600080546001600160a01b038381166001600160a01b0319831681178455604051919092169283917f8be0079c531659141344cd1fd0a4f28419497f9722a3daafe3b4186f6b6457e09190a35050565b6001600160a01b0381166000908152600b602052604081205460ff1661362b5760405163bfadfc2760e01b81526001600160a01b0383166004820152602401610f33565b506001600160a01b031660009081526006602052604090205490565b8280548282559060005260206000209060030281019282156136d05760005260206000209160030282015b828111156136d0578282806136878382614435565b5060018181019061369a90840182614435565b50600291820154910180546001600160a01b0319166001600160a01b039092169190911790556003928301929190910190613672565b506136dc929150613859565b5090565b8280548282559060005260206000209060030281019282156137695760005260206000209160030282015b82811115613769578282806137208382614435565b5060018181019061373390840182614435565b50600291820154910180546001600160a01b0319166001600160a01b03909216919091179055600392830192919091019061370b565b506136dc929150613896565b8280548282559060005260206000209060040281019282156138135760005260206000209160040282015b82811115613813578282806137b58382614435565b5060018281015490820180546001600160a01b0319166001600160a01b039092169190911790556002808201906137ee90840182614435565b5060038181019061380190840182614435565b505050916004019190600401906137a0565b506136dc9291506138d3565b50805461382b906142f1565b6000825580601f1061383b575050565b601f0160209004906000526020600020908101906134cc919061391e565b808211156136dc57600061386d828261381f565b61387b60018301600061381f565b506002810180546001600160a01b0319169055600301613859565b808211156136dc5760006138aa828261381f565b6138b860018301600061381f565b506002810180546001600160a01b0319169055600301613896565b808211156136dc5760006138e7828261381f565b6001820180546001600160a01b031916905561390760028301600061381f565b61391560038301600061381f565b506004016138d3565b5b808211156136dc576000815560010161391f565b6001600160a01b03811681146134cc57600080fd5b803561395381613933565b919050565b60006020828403121561396a57600080fd5b813561397581613933565b9392505050565b634e487b7160e01b600052602160045260246000fd5b600581106139a2576139a261397c565b9052565b602081016139b48284613992565b92915050565b6000602082840312156139cc57600080fd5b5035919050565b634e487b7160e01b600052604160045260246000fd5b60405161018081016001600160401b0381118282101715613a0c57613a0c6139d3565b60405290565b604051608081016001600160401b0381118282101715613a0c57613a0c6139d3565b604051601f8201601f191681016001600160401b0381118282101715613a5c57613a5c6139d3565b604052919050565b600082601f830112613a7557600080fd5b81356001600160401b03811115613a8e57613a8e6139d3565b613aa1601f8201601f1916602001613a34565b818152846020838601011115613ab657600080fd5b816020850160208301376000918101602001919091529392505050565b60008083601f840112613ae557600080fd5b5081356001600160401b03811115613afc57600080fd5b602083019150836020828501011115613b1457600080fd5b9250929050565b63ffffffff811681146134cc57600080fd5b803561395381613b1b565b6001600160601b03811681146134cc57600080fd5b803561395381613b38565b803560ff8116811461395357600080fd5b6000806000806000806000806000806101008b8d031215613b8957600080fd5b8a356001600160401b0380821115613ba057600080fd5b613bac8e838f01613a64565b9b5060208d0135915080821115613bc257600080fd5b613bce8e838f01613ad3565b909b509950899150613be260408e01613948565b9850613bf060608e01613b2d565b9750613bfe60808e01613948565b965060a08d0135915080821115613c1457600080fd5b50613c218d828e01613ad3565b9095509350613c34905060c08c01613b4d565b9150613c4260e08c01613b58565b90509295989b9194979a5092959850565b60008060208385031215613c6657600080fd5b82356001600160401b03811115613c7c57600080fd5b613c8885828601613ad3565b90969095509350505050565b60005b83811015613caf578181015183820152602001613c97565b50506000910152565b60008151808452613cd0816020860160208601613c94565b601f01601f19169290920160200192915050565b606081526000613cf76060830186613cb8565b8281036020840152613d098186613cb8565b91505060018060a01b0383166040830152949350505050565b600080600060608486031215613d3757600080fd5b83356001600160401b0380821115613d4e57600080fd5b613d5a87838801613a64565b94506020860135915080821115613d7057600080fd5b613d7c87838801613a64565b93506040860135915080821115613d9257600080fd5b50613d9f86828701613a64565b9150509250925092565b8215158152604060208201526000613dc46040830184613cb8565b949350505050565b600381106139a2576139a261397c565b60006020808301818452808551808352604092508286019150828160051b87010184880160005b83811015613e6e57888303603f19018552815180516001600160a01b0316845287810151608089860181905290613e3c82870182613cb8565b91505087820151613e4f89870182613dcc565b5060609182015194909101939093529386019390860190600101613e03565b509098975050505050505050565b60008060408385031215613e8f57600080fd5b8235613e9a81613933565b91506020830135613eaa81613933565b809150509250929050565b606081526000613ec86060830186613cb8565b6001600160a01b03851660208401529050613dc46040830184613992565b60018060a01b0381511682526000602082015160406020850152613dc46040850182613cb8565b606081526000613f206060830186613cb8565b6001600160a01b03851660208401528281036040840152613f418185613ee6565b9695505050505050565b60008060408385031215613f5e57600080fd5b82356001600160401b0380821115613f7557600080fd5b613f8186838701613a64565b93506020850135915080821115613f9757600080fd5b50613fa485828601613a64565b9150509250929050565b6001600160a01b0385168152608060208201819052600090613fd290830186613cb8565b9050613fe16040830185613dcc565b82606083015295945050505050565b6080815260006140036080830187613cb8565b6001600160a01b038616602084015282810360408401526140248186613cb8565b905082810360608401526140388185613cb8565b979650505050505050565b60006020828403121561405557600080fd5b81356001600160401b0381111561406b57600080fd5b613dc484828501613a64565b600081516060845261408c6060850182613cb8565b9050602083015184820360208601526140a58282613cb8565b6040948501516001600160a01b03169590940194909452509092915050565b600081518084526020808501808196508360051b8101915082860160005b8581101561410c5782840389526140fa848351614077565b988501989350908401906001016140e2565b5091979650505050505050565b600081518084526020808501808196508360051b8101915082860160005b8581101561410c57828403895281516080815181875261415982880182613cb8565b838901516001600160a01b0316888a0152604080850151898303828b015291935091506141868382613cb8565b92505050606080830151925086820381880152506141a48183613cb8565b9a87019a9550505090840190600101614137565b602080825282518282018190526000919060409081850190600581811b8701840188860187805b858110156142e157603f198b8503018752825160c0815181875261420582880182613cb8565b838d0151888203898f015280518083529193508d0191508c830190808a1b84018e01875b8281101561425c57601f19868303018452614245828651614077565b91508f850194508f84019350600181019050614229565b508d86015194506142778e8b01866001600160a01b03169052565b60609450848601519350898103858b015261429281856140c4565b945050505050608080830151878303828901526142af8382613ee6565b9250505060a080830151925086820381880152506142cd8183614119565b988b019895505050918801916001016141df565b50919a9950505050505050505050565b600181811c9082168061430557607f821691505b60208210810361432557634e487b7160e01b600052602260045260246000fd5b50919050565b601f82111561437157600081815260208120601f850160051c810160208610156143525750805b601f850160051c820191505b818110156128cd5782815560010161435e565b505050565b81516001600160401b0381111561438f5761438f6139d3565b6143a38161439d84546142f1565b8461432b565b602080601f8311600181146143d857600084156143c05750858301515b600019600386901b1c1916600185901b1785556128cd565b600085815260208120601f198616915b82811015614407578886015182559484019460019091019084016143e8565b50858210156144255787850151600019600388901b60f8161c191681555b5050505050600190811b01905550565b818103614440575050565b61444a82546142f1565b6001600160401b03811115614461576144616139d3565b61446f8161439d84546142f1565b6000601f8211600181146144a3576000831561448b5750848201545b600019600385901b1c1916600184901b178455614508565b600085815260209020601f19841690600086815260209020845b838110156144dd57828601548255600195860195909101906020016144bd565b50858310156144fb5781850154600019600388901b60f8161c191681555b50505060018360011b0184555b5050505050565b805161395381613b1b565b805161395381613b38565b805162ffffff8116811461395357600080fd5b805161ffff8116811461395357600080fd5b805161395381613933565b60006001600160401b0382111561456e5761456e6139d3565b5060051b60200190565b600082601f83011261458957600080fd5b8151602061459e61459983614555565b613a34565b82815260059290921b840181019181810190868411156145bd57600080fd5b8286015b848110156145e15780516145d481613933565b83529183019183016145c1565b509695505050505050565b600080600083850361022081121561460357600080fd5b608081121561461157600080fd5b614619613a12565b855161462481613b1b565b8152602086015161463481613b38565b602082015260408681015190820152606080870151908201529350610180607f19820181131561466357600080fd5b61466b6139e9565b91506146796080870161450f565b825261468760a0870161450f565b602083015261469860c08701614525565b60408301526146a960e0870161450f565b60608301526101006146bc818801614525565b60808401526101206146cf818901614538565b60a08501526101406146e2818a0161451a565b60c08601526101606146f5818b0161450f565b60e0870152848a0151848701526101a08a0151838701526147196101c08b0161454a565b8287015261472a6101e08b0161454a565b90860152505050506102008501519092506001600160401b0381111561474f57600080fd5b613d9f86828701614578565b81835281816020850137506000828201602090810191909152601f909101601f19169091010190565b60006101208083526147988184018f613cb8565b905082810360208401526147ad818d8f61475b565b6001600160a01b038c8116604086015263ffffffff8c1660608601528a8116608086015284820360a08601529091506147e782898b61475b565b6001600160601b039790971660c085015260ff9590951660e0840152505091166101009091015298975050505050505050565b6001600160e01b031983168152815160009061483d816004850160208701613c94565b919091016004019392505050565b6001600160a01b03841681526001600160601b038316602082015260606040820181905260009061487e90830184613cb8565b95945050505050565b60006020828403121561489957600080fd5b8151801515811461397557600080fd5b634e487b7160e01b600052601160045260246000fd5b808201808211156139b4576139b46148a9565b818103818111156139b4576139b46148a9565b6001600160a01b038416815260406020820181905260009061487e908301848661475b565b6000602080838503121561491d57600080fd5b82356001600160401b038082111561493457600080fd5b818501915085601f83011261494857600080fd5b813561495661459982614555565b81815260059190911b8301840190848101908883111561497557600080fd5b8585015b83811015614a18578035858111156149915760008081fd5b86016080818c03601f19018113156149a95760008081fd5b6149b1613a12565b898301356149be81613933565b8152604083810135898111156149d45760008081fd5b6149e28f8d83880101613a64565b8c84015250606080850135600381106149fb5760008081fd5b918301919091529190920135908201528352918601918601614979565b5098975050505050505050565b634e487b7160e01b600052603260045260246000fd5b600061ffff808316818103614a5257614a526148a9565b6001019392505050565b6001600160a01b0383168152604060208201819052600090613dc490830184613cb8565b600060208284031215614a9257600080fd5b505191905056fea2646970667358221220f7d7fc9a6a90de01b09efdc97cda1197078d3792b936901738ca9a6dec532c0464736f6c63430008110033",
  "linkReferences": {},
  "deployedLinkReferences": {}
}